{
  "contractName": "DIDRegistry",
  "abi": [
    {
      "anonymous": false,
      "inputs": [
        {
          "indexed": true,
          "internalType": "address",
          "name": "owner",
          "type": "address"
        },
        {
          "indexed": false,
          "internalType": "string",
          "name": "did",
          "type": "string"
        }
      ],
      "name": "DIDRegistered",
      "type": "event"
    },
    {
      "anonymous": false,
      "inputs": [
        {
          "indexed": true,
          "internalType": "address",
          "name": "owner",
          "type": "address"
        },
        {
          "indexed": false,
          "internalType": "string",
          "name": "did",
          "type": "string"
        },
        {
          "indexed": false,
          "internalType": "string",
          "name": "cid",
          "type": "string"
        }
      ],
      "name": "IoTDataRegistered",
      "type": "event"
    },
    {
      "inputs": [
        {
          "internalType": "address",
          "name": "",
          "type": "address"
        },
        {
          "internalType": "uint256",
          "name": "",
          "type": "uint256"
        }
      ],
      "name": "didDocuments",
      "outputs": [
        {
          "internalType": "string",
          "name": "did",
          "type": "string"
        },
        {
          "internalType": "string",
          "name": "doc",
          "type": "string"
        }
      ],
      "stateMutability": "view",
      "type": "function",
      "constant": true
    },
    {
      "inputs": [
        {
          "internalType": "address",
          "name": "",
          "type": "address"
        },
        {
          "internalType": "uint256",
          "name": "",
          "type": "uint256"
        }
      ],
      "name": "iotData",
      "outputs": [
        {
          "internalType": "string",
          "name": "did",
          "type": "string"
        },
        {
          "internalType": "string",
          "name": "cid",
          "type": "string"
        }
      ],
      "stateMutability": "view",
      "type": "function",
      "constant": true
    },
    {
      "inputs": [
        {
          "internalType": "string",
          "name": "did",
          "type": "string"
        },
        {
          "internalType": "string",
          "name": "didDocumentJson",
          "type": "string"
        }
      ],
      "name": "registerDIDDocument",
      "outputs": [],
      "stateMutability": "nonpayable",
      "type": "function"
    },
    {
      "inputs": [
        {
          "internalType": "string",
          "name": "did",
          "type": "string"
        },
        {
          "internalType": "string",
          "name": "cid",
          "type": "string"
        }
      ],
      "name": "registerIoTData",
      "outputs": [],
      "stateMutability": "nonpayable",
      "type": "function"
    },
    {
      "inputs": [
        {
          "internalType": "address",
          "name": "owner",
          "type": "address"
        },
        {
          "internalType": "uint256",
          "name": "index",
          "type": "uint256"
        }
      ],
      "name": "getDIDDocument",
      "outputs": [
        {
          "internalType": "string",
          "name": "did",
          "type": "string"
        },
        {
          "internalType": "string",
          "name": "doc",
          "type": "string"
        }
      ],
      "stateMutability": "view",
      "type": "function",
      "constant": true
    },
    {
      "inputs": [
        {
          "internalType": "address",
          "name": "owner",
          "type": "address"
        },
        {
          "internalType": "uint256",
          "name": "index",
          "type": "uint256"
        }
      ],
      "name": "getIoTData",
      "outputs": [
        {
          "internalType": "string",
          "name": "did",
          "type": "string"
        },
        {
          "internalType": "string",
          "name": "cid",
          "type": "string"
        }
      ],
      "stateMutability": "view",
      "type": "function",
      "constant": true
    },
    {
      "inputs": [
        {
          "internalType": "address",
          "name": "owner",
          "type": "address"
        }
      ],
      "name": "getDIDCount",
      "outputs": [
        {
          "internalType": "uint256",
          "name": "",
          "type": "uint256"
        }
      ],
      "stateMutability": "view",
      "type": "function",
      "constant": true
    },
    {
      "inputs": [
        {
          "internalType": "address",
          "name": "owner",
          "type": "address"
        }
      ],
      "name": "getIoTDataCount",
      "outputs": [
        {
          "internalType": "uint256",
          "name": "",
          "type": "uint256"
        }
      ],
      "stateMutability": "view",
      "type": "function",
      "constant": true
    }
  ],
  "bytecode": "0x608060405234801561000f575f80fd5b506110da8061001d5f395ff3fe608060405234801561000f575f80fd5b5060043610610086575f3560e01c8063f096ee8b11610059578063f096ee8b14610124578063f796484814610154578063fd20d65614610185578063ff01b411146101b557610086565b80631f55565a1461008a5780633727d4c5146100a65780636d90186a146100d75780638c8d1fe8146100f3575b5f80fd5b6100a4600480360381019061009f9190610b4b565b6101e6565b005b6100c060048036038101906100bb9190610c4e565b6102db565b6040516100ce929190610d06565b60405180910390f35b6100f160048036038101906100ec9190610b4b565b610421565b005b61010d60048036038101906101089190610c4e565b610519565b60405161011b929190610d06565b60405180910390f35b61013e60048036038101906101399190610d3b565b6106a1565b60405161014b9190610d75565b60405180910390f35b61016e60048036038101906101699190610c4e565b6106ea565b60405161017c929190610d06565b60405180910390f35b61019f600480360381019061019a9190610d3b565b610871565b6040516101ac9190610d75565b60405180910390f35b6101cf60048036038101906101ca9190610c4e565b6108b9565b6040516101dd929190610d06565b60405180910390f35b5f803373ffffffffffffffffffffffffffffffffffffffff1673ffffffffffffffffffffffffffffffffffffffff1681526020019081526020015f20604051806040016040528084815260200183815250908060018154018082558091505060019003905f5260205f2090600202015f909190919091505f820151815f0190816102709190610f88565b5060208201518160010190816102869190610f88565b5050503373ffffffffffffffffffffffffffffffffffffffff167fbfab59a7af78dfc896c3096604749fcee2db2e850297de42de5e6369f54bd3fb836040516102cf9190611057565b60405180910390a25050565b6001602052815f5260405f2081815481106102f4575f80fd5b905f5260205f2090600202015f9150915050805f01805461031490610dbb565b80601f016020809104026020016040519081016040528092919081815260200182805461034090610dbb565b801561038b5780601f106103625761010080835404028352916020019161038b565b820191905f5260205f20905b81548152906001019060200180831161036e57829003601f168201915b5050505050908060010180546103a090610dbb565b80601f01602080910402602001604051908101604052809291908181526020018280546103cc90610dbb565b80156104175780601f106103ee57610100808354040283529160200191610417565b820191905f5260205f20905b8154815290600101906020018083116103fa57829003601f168201915b5050505050905082565b60015f3373ffffffffffffffffffffffffffffffffffffffff1673ffffffffffffffffffffffffffffffffffffffff1681526020019081526020015f20604051806040016040528084815260200183815250908060018154018082558091505060019003905f5260205f2090600202015f909190919091505f820151815f0190816104ac9190610f88565b5060208201518160010190816104c29190610f88565b5050503373ffffffffffffffffffffffffffffffffffffffff167f370c58f0a643dcdaf03be6c7da676ad8d7535a3bc9f52938b00280826502a7b6838360405161050d929190610d06565b60405180910390a25050565b6060805f60015f8673ffffffffffffffffffffffffffffffffffffffff1673ffffffffffffffffffffffffffffffffffffffff1681526020019081526020015f20848154811061056c5761056b611077565b5b905f5260205f2090600202019050805f018160010181805461058d90610dbb565b80601f01602080910402602001604051908101604052809291908181526020018280546105b990610dbb565b80156106045780601f106105db57610100808354040283529160200191610604565b820191905f5260205f20905b8154815290600101906020018083116105e757829003601f168201915b5050505050915080805461061790610dbb565b80601f016020809104026020016040519081016040528092919081815260200182805461064390610dbb565b801561068e5780601f106106655761010080835404028352916020019161068e565b820191905f5260205f20905b81548152906001019060200180831161067157829003601f168201915b5050505050905092509250509250929050565b5f60015f8373ffffffffffffffffffffffffffffffffffffffff1673ffffffffffffffffffffffffffffffffffffffff1681526020019081526020015f20805490509050919050565b6060805f805f8673ffffffffffffffffffffffffffffffffffffffff1673ffffffffffffffffffffffffffffffffffffffff1681526020019081526020015f20848154811061073c5761073b611077565b5b905f5260205f2090600202019050805f018160010181805461075d90610dbb565b80601f016020809104026020016040519081016040528092919081815260200182805461078990610dbb565b80156107d45780601f106107ab576101008083540402835291602001916107d4565b820191905f5260205f20905b8154815290600101906020018083116107b757829003601f168201915b505050505091508080546107e790610dbb565b80601f016020809104026020016040519081016040528092919081815260200182805461081390610dbb565b801561085e5780601f106108355761010080835404028352916020019161085e565b820191905f5260205f20905b81548152906001019060200180831161084157829003601f168201915b5050505050905092509250509250929050565b5f805f8373ffffffffffffffffffffffffffffffffffffffff1673ffffffffffffffffffffffffffffffffffffffff1681526020019081526020015f20805490509050919050565b5f602052815f5260405f2081815481106108d1575f80fd5b905f5260205f2090600202015f9150915050805f0180546108f190610dbb565b80601f016020809104026020016040519081016040528092919081815260200182805461091d90610dbb565b80156109685780601f1061093f57610100808354040283529160200191610968565b820191905f5260205f20905b81548152906001019060200180831161094b57829003601f168201915b50505050509080600101805461097d90610dbb565b80601f01602080910402602001604051908101604052809291908181526020018280546109a990610dbb565b80156109f45780601f106109cb576101008083540402835291602001916109f4565b820191905f5260205f20905b8154815290600101906020018083116109d757829003601f168201915b5050505050905082565b5f604051905090565b5f80fd5b5f80fd5b5f80fd5b5f80fd5b5f601f19601f8301169050919050565b7f4e487b71000000000000000000000000000000000000000000000000000000005f52604160045260245ffd5b610a5d82610a17565b810181811067ffffffffffffffff82111715610a7c57610a7b610a27565b5b80604052505050565b5f610a8e6109fe565b9050610a9a8282610a54565b919050565b5f67ffffffffffffffff821115610ab957610ab8610a27565b5b610ac282610a17565b9050602081019050919050565b828183375f83830152505050565b5f610aef610aea84610a9f565b610a85565b905082815260208101848484011115610b0b57610b0a610a13565b5b610b16848285610acf565b509392505050565b5f82601f830112610b3257610b31610a0f565b5b8135610b42848260208601610add565b91505092915050565b5f8060408385031215610b6157610b60610a07565b5b5f83013567ffffffffffffffff811115610b7e57610b7d610a0b565b5b610b8a85828601610b1e565b925050602083013567ffffffffffffffff811115610bab57610baa610a0b565b5b610bb785828601610b1e565b9150509250929050565b5f73ffffffffffffffffffffffffffffffffffffffff82169050919050565b5f610bea82610bc1565b9050919050565b610bfa81610be0565b8114610c04575f80fd5b50565b5f81359050610c1581610bf1565b92915050565b5f819050919050565b610c2d81610c1b565b8114610c37575f80fd5b50565b5f81359050610c4881610c24565b92915050565b5f8060408385031215610c6457610c63610a07565b5b5f610c7185828601610c07565b9250506020610c8285828601610c3a565b9150509250929050565b5f81519050919050565b5f82825260208201905092915050565b5f5b83811015610cc3578082015181840152602081019050610ca8565b5f8484015250505050565b5f610cd882610c8c565b610ce28185610c96565b9350610cf2818560208601610ca6565b610cfb81610a17565b840191505092915050565b5f6040820190508181035f830152610d1e8185610cce565b90508181036020830152610d328184610cce565b90509392505050565b5f60208284031215610d5057610d4f610a07565b5b5f610d5d84828501610c07565b91505092915050565b610d6f81610c1b565b82525050565b5f602082019050610d885f830184610d66565b92915050565b7f4e487b71000000000000000000000000000000000000000000000000000000005f52602260045260245ffd5b5f6002820490506001821680610dd257607f821691505b602082108103610de557610de4610d8e565b5b50919050565b5f819050815f5260205f209050919050565b5f6020601f8301049050919050565b5f82821b905092915050565b5f60088302610e477fffffffffffffffffffffffffffffffffffffffffffffffffffffffffffffffff82610e0c565b610e518683610e0c565b95508019841693508086168417925050509392505050565b5f819050919050565b5f610e8c610e87610e8284610c1b565b610e69565b610c1b565b9050919050565b5f819050919050565b610ea583610e72565b610eb9610eb182610e93565b848454610e18565b825550505050565b5f90565b610ecd610ec1565b610ed8818484610e9c565b505050565b5b81811015610efb57610ef05f82610ec5565b600181019050610ede565b5050565b601f821115610f4057610f1181610deb565b610f1a84610dfd565b81016020851015610f29578190505b610f3d610f3585610dfd565b830182610edd565b50505b505050565b5f82821c905092915050565b5f610f605f1984600802610f45565b1980831691505092915050565b5f610f788383610f51565b9150826002028217905092915050565b610f9182610c8c565b67ffffffffffffffff811115610faa57610fa9610a27565b5b610fb48254610dbb565b610fbf828285610eff565b5f60209050601f831160018114610ff0575f8415610fde578287015190505b610fe88582610f6d565b86555061104f565b601f198416610ffe86610deb565b5f5b8281101561102557848901518255600182019150602085019450602081019050611000565b86831015611042578489015161103e601f891682610f51565b8355505b6001600288020188555050505b505050505050565b5f6020820190508181035f83015261106f8184610cce565b905092915050565b7f4e487b71000000000000000000000000000000000000000000000000000000005f52603260045260245ffdfea26469706673582212201b84674b43545a4edd4557c5fac310fde2d186dc754b2069c1f45c15cfe706d064736f6c63430008140033",
  "immutableReferences": {},
  "source": "// SPDX-License-Identifier: MIT\r\npragma solidity ^0.8.0;\r\n\r\ncontract DIDRegistry {\r\n    struct DIDDoc {\r\n        string did;\r\n        string doc;\r\n    }\r\n\r\n    struct IoTRecord {\r\n        string did;\r\n        string cid;\r\n    }\r\n\r\n    mapping(address => DIDDoc[]) public didDocuments;\r\n    mapping(address => IoTRecord[]) public iotData;\r\n\r\n    event DIDRegistered(address indexed owner, string did);\r\n    event IoTDataRegistered(address indexed owner, string did, string cid);\r\n\r\n    // --- DID Document ---\r\n    function registerDIDDocument(string memory did, string memory didDocumentJson) public {\r\n        didDocuments[msg.sender].push(DIDDoc(did, didDocumentJson));\r\n        emit DIDRegistered(msg.sender, did);\r\n    }\r\n\r\n    // --- IoT(CID) ---\r\n    function registerIoTData(string memory did, string memory cid) public {\r\n        iotData[msg.sender].push(IoTRecord(did, cid));\r\n        emit IoTDataRegistered(msg.sender, did, cid);\r\n    }\r\n\r\n    // DID Document\r\n    function getDIDDocument(address owner, uint256 index) public view returns(string memory did, string memory doc) {\r\n        DIDDoc storage d = didDocuments[owner][index];\r\n        return (d.did, d.doc);\r\n    }\r\n\r\n    // IoT\r\n    function getIoTData(address owner, uint256 index) public view returns(string memory did, string memory cid) {\r\n        IoTRecord storage r = iotData[owner][index];\r\n        return (r.did, r.cid);\r\n    }\r\n\r\n    // DID Document\r\n    function getDIDCount(address owner) public view returns(uint256) {\r\n        return didDocuments[owner].length;\r\n    }\r\n\r\n    // IoT\r\n    function getIoTDataCount(address owner) public view returns(uint256) {\r\n        return iotData[owner].length;\r\n    }\r\n}",
  "sourcePath": "C:\\Users\\takeu\\Desktop\\\\\\did-iot-experiment2\\contracts\\DIDRegistry.sol",
  "compiler": {
    "name": "solc",
    "version": "0.8.20+commit.a1b79de6.Emscripten.clang"
  },
  "schemaVersion": "3.4.16",
  "updatedAt": "2025-12-12T05:39:03.838Z",
  "networkType": "ethereum",
  "devdoc": {
    "kind": "dev",
    "methods": {},
    "version": 1
  },
  "userdoc": {
    "kind": "user",
    "methods": {},
    "version": 1
  }
}